{
  "_format": "hh-sol-artifact-1",
  "contractName": "EtherLinkNFT",
  "sourceName": "contracts/EtherLink721.sol",
  "abi": [
    {
      "inputs": [],
      "stateMutability": "nonpayable",
      "type": "constructor"
    },
    {
      "inputs": [
        {
          "internalType": "address",
          "name": "sender",
          "type": "address"
        },
        {
          "internalType": "uint256",
          "name": "tokenId",
          "type": "uint256"
        },
        {
          "internalType": "address",
          "name": "owner",
          "type": "address"
        }
      ],
      "name": "ERC721IncorrectOwner",
      "type": "error"
    },
    {
      "inputs": [
        {
          "internalType": "address",
          "name": "operator",
          "type": "address"
        },
        {
          "internalType": "uint256",
          "name": "tokenId",
          "type": "uint256"
        }
      ],
      "name": "ERC721InsufficientApproval",
      "type": "error"
    },
    {
      "inputs": [
        {
          "internalType": "address",
          "name": "approver",
          "type": "address"
        }
      ],
      "name": "ERC721InvalidApprover",
      "type": "error"
    },
    {
      "inputs": [
        {
          "internalType": "address",
          "name": "operator",
          "type": "address"
        }
      ],
      "name": "ERC721InvalidOperator",
      "type": "error"
    },
    {
      "inputs": [
        {
          "internalType": "address",
          "name": "owner",
          "type": "address"
        }
      ],
      "name": "ERC721InvalidOwner",
      "type": "error"
    },
    {
      "inputs": [
        {
          "internalType": "address",
          "name": "receiver",
          "type": "address"
        }
      ],
      "name": "ERC721InvalidReceiver",
      "type": "error"
    },
    {
      "inputs": [
        {
          "internalType": "address",
          "name": "sender",
          "type": "address"
        }
      ],
      "name": "ERC721InvalidSender",
      "type": "error"
    },
    {
      "inputs": [
        {
          "internalType": "uint256",
          "name": "tokenId",
          "type": "uint256"
        }
      ],
      "name": "ERC721NonexistentToken",
      "type": "error"
    },
    {
      "inputs": [
        {
          "internalType": "address",
          "name": "owner",
          "type": "address"
        }
      ],
      "name": "OwnableInvalidOwner",
      "type": "error"
    },
    {
      "inputs": [
        {
          "internalType": "address",
          "name": "account",
          "type": "address"
        }
      ],
      "name": "OwnableUnauthorizedAccount",
      "type": "error"
    },
    {
      "anonymous": false,
      "inputs": [
        {
          "indexed": true,
          "internalType": "address",
          "name": "owner",
          "type": "address"
        },
        {
          "indexed": true,
          "internalType": "address",
          "name": "approved",
          "type": "address"
        },
        {
          "indexed": true,
          "internalType": "uint256",
          "name": "tokenId",
          "type": "uint256"
        }
      ],
      "name": "Approval",
      "type": "event"
    },
    {
      "anonymous": false,
      "inputs": [
        {
          "indexed": true,
          "internalType": "address",
          "name": "owner",
          "type": "address"
        },
        {
          "indexed": true,
          "internalType": "address",
          "name": "operator",
          "type": "address"
        },
        {
          "indexed": false,
          "internalType": "bool",
          "name": "approved",
          "type": "bool"
        }
      ],
      "name": "ApprovalForAll",
      "type": "event"
    },
    {
      "anonymous": false,
      "inputs": [
        {
          "indexed": false,
          "internalType": "uint256",
          "name": "_fromTokenId",
          "type": "uint256"
        },
        {
          "indexed": false,
          "internalType": "uint256",
          "name": "_toTokenId",
          "type": "uint256"
        }
      ],
      "name": "BatchMetadataUpdate",
      "type": "event"
    },
    {
      "anonymous": false,
      "inputs": [
        {
          "indexed": false,
          "internalType": "uint256",
          "name": "_tokenId",
          "type": "uint256"
        }
      ],
      "name": "MetadataUpdate",
      "type": "event"
    },
    {
      "anonymous": false,
      "inputs": [
        {
          "indexed": true,
          "internalType": "address",
          "name": "previousOwner",
          "type": "address"
        },
        {
          "indexed": true,
          "internalType": "address",
          "name": "newOwner",
          "type": "address"
        }
      ],
      "name": "OwnershipTransferred",
      "type": "event"
    },
    {
      "anonymous": false,
      "inputs": [
        {
          "indexed": true,
          "internalType": "address",
          "name": "from",
          "type": "address"
        },
        {
          "indexed": true,
          "internalType": "address",
          "name": "to",
          "type": "address"
        },
        {
          "indexed": true,
          "internalType": "uint256",
          "name": "tokenId",
          "type": "uint256"
        }
      ],
      "name": "Transfer",
      "type": "event"
    },
    {
      "inputs": [
        {
          "internalType": "address",
          "name": "to",
          "type": "address"
        },
        {
          "internalType": "uint256",
          "name": "tokenId",
          "type": "uint256"
        }
      ],
      "name": "approve",
      "outputs": [],
      "stateMutability": "nonpayable",
      "type": "function"
    },
    {
      "inputs": [
        {
          "internalType": "address",
          "name": "owner",
          "type": "address"
        }
      ],
      "name": "balanceOf",
      "outputs": [
        {
          "internalType": "uint256",
          "name": "",
          "type": "uint256"
        }
      ],
      "stateMutability": "view",
      "type": "function"
    },
    {
      "inputs": [
        {
          "internalType": "uint256",
          "name": "tokenId",
          "type": "uint256"
        }
      ],
      "name": "getApproved",
      "outputs": [
        {
          "internalType": "address",
          "name": "",
          "type": "address"
        }
      ],
      "stateMutability": "view",
      "type": "function"
    },
    {
      "inputs": [
        {
          "internalType": "address",
          "name": "owner",
          "type": "address"
        },
        {
          "internalType": "address",
          "name": "operator",
          "type": "address"
        }
      ],
      "name": "isApprovedForAll",
      "outputs": [
        {
          "internalType": "bool",
          "name": "",
          "type": "bool"
        }
      ],
      "stateMutability": "view",
      "type": "function"
    },
    {
      "inputs": [
        {
          "internalType": "address",
          "name": "to",
          "type": "address"
        },
        {
          "internalType": "string",
          "name": "_tokenURI",
          "type": "string"
        }
      ],
      "name": "mint",
      "outputs": [
        {
          "internalType": "uint256",
          "name": "",
          "type": "uint256"
        }
      ],
      "stateMutability": "nonpayable",
      "type": "function"
    },
    {
      "inputs": [],
      "name": "name",
      "outputs": [
        {
          "internalType": "string",
          "name": "",
          "type": "string"
        }
      ],
      "stateMutability": "view",
      "type": "function"
    },
    {
      "inputs": [],
      "name": "nextTokenId",
      "outputs": [
        {
          "internalType": "uint256",
          "name": "",
          "type": "uint256"
        }
      ],
      "stateMutability": "view",
      "type": "function"
    },
    {
      "inputs": [],
      "name": "owner",
      "outputs": [
        {
          "internalType": "address",
          "name": "",
          "type": "address"
        }
      ],
      "stateMutability": "view",
      "type": "function"
    },
    {
      "inputs": [
        {
          "internalType": "uint256",
          "name": "tokenId",
          "type": "uint256"
        }
      ],
      "name": "ownerOf",
      "outputs": [
        {
          "internalType": "address",
          "name": "",
          "type": "address"
        }
      ],
      "stateMutability": "view",
      "type": "function"
    },
    {
      "inputs": [],
      "name": "renounceOwnership",
      "outputs": [],
      "stateMutability": "nonpayable",
      "type": "function"
    },
    {
      "inputs": [
        {
          "internalType": "address",
          "name": "from",
          "type": "address"
        },
        {
          "internalType": "address",
          "name": "to",
          "type": "address"
        },
        {
          "internalType": "uint256",
          "name": "tokenId",
          "type": "uint256"
        }
      ],
      "name": "safeTransferFrom",
      "outputs": [],
      "stateMutability": "nonpayable",
      "type": "function"
    },
    {
      "inputs": [
        {
          "internalType": "address",
          "name": "from",
          "type": "address"
        },
        {
          "internalType": "address",
          "name": "to",
          "type": "address"
        },
        {
          "internalType": "uint256",
          "name": "tokenId",
          "type": "uint256"
        },
        {
          "internalType": "bytes",
          "name": "data",
          "type": "bytes"
        }
      ],
      "name": "safeTransferFrom",
      "outputs": [],
      "stateMutability": "nonpayable",
      "type": "function"
    },
    {
      "inputs": [
        {
          "internalType": "address",
          "name": "operator",
          "type": "address"
        },
        {
          "internalType": "bool",
          "name": "approved",
          "type": "bool"
        }
      ],
      "name": "setApprovalForAll",
      "outputs": [],
      "stateMutability": "nonpayable",
      "type": "function"
    },
    {
      "inputs": [
        {
          "internalType": "bytes4",
          "name": "interfaceId",
          "type": "bytes4"
        }
      ],
      "name": "supportsInterface",
      "outputs": [
        {
          "internalType": "bool",
          "name": "",
          "type": "bool"
        }
      ],
      "stateMutability": "view",
      "type": "function"
    },
    {
      "inputs": [],
      "name": "symbol",
      "outputs": [
        {
          "internalType": "string",
          "name": "",
          "type": "string"
        }
      ],
      "stateMutability": "view",
      "type": "function"
    },
    {
      "inputs": [
        {
          "internalType": "uint256",
          "name": "tokenId",
          "type": "uint256"
        }
      ],
      "name": "tokenURI",
      "outputs": [
        {
          "internalType": "string",
          "name": "",
          "type": "string"
        }
      ],
      "stateMutability": "view",
      "type": "function"
    },
    {
      "inputs": [
        {
          "internalType": "address",
          "name": "from",
          "type": "address"
        },
        {
          "internalType": "address",
          "name": "to",
          "type": "address"
        },
        {
          "internalType": "uint256",
          "name": "tokenId",
          "type": "uint256"
        }
      ],
      "name": "transferFrom",
      "outputs": [],
      "stateMutability": "nonpayable",
      "type": "function"
    },
    {
      "inputs": [
        {
          "internalType": "address",
          "name": "newOwner",
          "type": "address"
        }
      ],
      "name": "transferOwnership",
      "outputs": [],
      "stateMutability": "nonpayable",
      "type": "function"
    }
  ],
  "bytecode": "0x608060405234801562000010575f80fd5b50336040518060400160405280600981526020016845746865724c696e6b60b81b81525060405180604001604052806003815260200162454c4b60e81b815250815f9081620000609190620001a3565b5060016200006f8282620001a3565b5050506001600160a01b038116620000a057604051631e4fbdf760e01b81525f600482015260240160405180910390fd5b620000ab81620000b2565b506200026b565b600780546001600160a01b038381166001600160a01b0319831681179093556040519116919082907f8be0079c531659141344cd1fd0a4f28419497f9722a3daafe3b4186f6b6457e0905f90a35050565b634e487b7160e01b5f52604160045260245ffd5b600181811c908216806200012c57607f821691505b6020821081036200014b57634e487b7160e01b5f52602260045260245ffd5b50919050565b601f8211156200019e575f81815260208120601f850160051c81016020861015620001795750805b601f850160051c820191505b818110156200019a5782815560010162000185565b5050505b505050565b81516001600160401b03811115620001bf57620001bf62000103565b620001d781620001d0845462000117565b8462000151565b602080601f8311600181146200020d575f8415620001f55750858301515b5f19600386901b1c1916600185901b1785556200019a565b5f85815260208120601f198616915b828110156200023d578886015182559484019460019091019084016200021c565b50858210156200025b57878501515f19600388901b60f8161c191681555b5050505050600190811b01905550565b6113d580620002795f395ff3fe608060405234801561000f575f80fd5b5060043610610111575f3560e01c806375794a3c1161009e578063b88d4fde1161006e578063b88d4fde14610229578063c87b56dd1461023c578063d0def5211461024f578063e985e9c514610262578063f2fde38b14610275575f80fd5b806375794a3c146101f45780638da5cb5b146101fd57806395d89b411461020e578063a22cb46514610216575f80fd5b806323b872dd116100e457806323b872dd1461019257806342842e0e146101a55780636352211e146101b857806370a08231146101cb578063715018a6146101ec575f80fd5b806301ffc9a71461011557806306fdde031461013d578063081812fc14610152578063095ea7b31461017d575b5f80fd5b610128610123366004610ed1565b610288565b60405190151581526020015b60405180910390f35b6101456102b2565b6040516101349190610f39565b610165610160366004610f4b565b610341565b6040516001600160a01b039091168152602001610134565b61019061018b366004610f7d565b610368565b005b6101906101a0366004610fa5565b610377565b6101906101b3366004610fa5565b610405565b6101656101c6366004610f4b565b610424565b6101de6101d9366004610fde565b61042e565b604051908152602001610134565b610190610473565b6101de60085481565b6007546001600160a01b0316610165565b610145610486565b610190610224366004610ff7565b610495565b6101906102373660046110b7565b6104a0565b61014561024a366004610f4b565b6104b8565b6101de61025d36600461112e565b6104c3565b61012861027036600461118c565b6104fd565b610190610283366004610fde565b61052a565b5f6001600160e01b03198216632483248360e11b14806102ac57506102ac82610567565b92915050565b60605f80546102c0906111bd565b80601f01602080910402602001604051908101604052809291908181526020018280546102ec906111bd565b80156103375780601f1061030e57610100808354040283529160200191610337565b820191905f5260205f20905b81548152906001019060200180831161031a57829003601f168201915b5050505050905090565b5f61034b826105b6565b505f828152600460205260409020546001600160a01b03166102ac565b6103738282336105ee565b5050565b6001600160a01b0382166103a557604051633250574960e11b81525f60048201526024015b60405180910390fd5b5f6103b18383336105fb565b9050836001600160a01b0316816001600160a01b0316146103ff576040516364283d7b60e01b81526001600160a01b038086166004830152602482018490528216604482015260640161039c565b50505050565b61041f83838360405180602001604052805f8152506104a0565b505050565b5f6102ac826105b6565b5f6001600160a01b038216610458576040516322718ad960e21b81525f600482015260240161039c565b506001600160a01b03165f9081526003602052604090205490565b61047b6106ed565b6104845f61071a565b565b6060600180546102c0906111bd565b61037333838361076b565b6104ab848484610377565b6103ff3385858585610809565b60606102ac82610931565b5f6104cc6106ed565b600880545f91826104dc836111f5565b9190505590506104ec8482610a3c565b6104f68184610a55565b9392505050565b6001600160a01b039182165f90815260056020908152604080832093909416825291909152205460ff1690565b6105326106ed565b6001600160a01b03811661055b57604051631e4fbdf760e01b81525f600482015260240161039c565b6105648161071a565b50565b5f6001600160e01b031982166380ac58cd60e01b148061059757506001600160e01b03198216635b5e139f60e01b145b806102ac57506301ffc9a760e01b6001600160e01b03198316146102ac565b5f818152600260205260408120546001600160a01b0316806102ac57604051637e27328960e01b81526004810184905260240161039c565b61041f8383836001610aa4565b5f828152600260205260408120546001600160a01b039081169083161561062757610627818486610ba8565b6001600160a01b03811615610661576106425f855f80610aa4565b6001600160a01b0381165f90815260036020526040902080545f190190555b6001600160a01b0385161561068f576001600160a01b0385165f908152600360205260409020805460010190555b5f8481526002602052604080822080546001600160a01b0319166001600160a01b0389811691821790925591518793918516917fddf252ad1be2c89b69c2b068fc378daa952ba7f163c4a11628f55a4df523b3ef91a4949350505050565b6007546001600160a01b031633146104845760405163118cdaa760e01b815233600482015260240161039c565b600780546001600160a01b038381166001600160a01b0319831681179093556040519116919082907f8be0079c531659141344cd1fd0a4f28419497f9722a3daafe3b4186f6b6457e0905f90a35050565b6001600160a01b03821661079d57604051630b61174360e31b81526001600160a01b038316600482015260240161039c565b6001600160a01b038381165f81815260056020908152604080832094871680845294825291829020805460ff191686151590811790915591519182527f17307eab39ab6107e8899845ad3d59bd9653f200f220920489ca2b5937696c31910160405180910390a3505050565b6001600160a01b0383163b1561092a57604051630a85bd0160e11b81526001600160a01b0384169063150b7a029061084b908890889087908790600401611219565b6020604051808303815f875af1925050508015610885575060408051601f3d908101601f1916820190925261088291810190611255565b60015b6108ec573d8080156108b2576040519150601f19603f3d011682016040523d82523d5f602084013e6108b7565b606091505b5080515f036108e457604051633250574960e11b81526001600160a01b038516600482015260240161039c565b805181602001fd5b6001600160e01b03198116630a85bd0160e11b1461092857604051633250574960e11b81526001600160a01b038516600482015260240161039c565b505b5050505050565b606061093c826105b6565b505f8281526006602052604081208054610955906111bd565b80601f0160208091040260200160405190810160405280929190818152602001828054610981906111bd565b80156109cc5780601f106109a3576101008083540402835291602001916109cc565b820191905f5260205f20905b8154815290600101906020018083116109af57829003601f168201915b505050505090505f6109e860408051602081019091525f815290565b905080515f036109f9575092915050565b815115610a2b578082604051602001610a13929190611270565b60405160208183030381529060405292505050919050565b610a3484610c0c565b949350505050565b610373828260405180602001604052805f815250610c7c565b5f828152600660205260409020610a6c82826112e3565b506040518281527ff8e1a15aba9398e019f0b49df1a4fde98ee17ae345cb5f6b5e2c27f5033e8ce79060200160405180910390a15050565b8080610ab857506001600160a01b03821615155b15610b79575f610ac7846105b6565b90506001600160a01b03831615801590610af35750826001600160a01b0316816001600160a01b031614155b8015610b065750610b0481846104fd565b155b15610b2f5760405163a9fbf51f60e01b81526001600160a01b038416600482015260240161039c565b8115610b775783856001600160a01b0316826001600160a01b03167f8c5be1e5ebec7d5bd14f71427d1e84f3dd0314c0f7b2291e5b200ac8c7c3b92560405160405180910390a45b505b50505f90815260046020526040902080546001600160a01b0319166001600160a01b0392909216919091179055565b610bb3838383610c93565b61041f576001600160a01b038316610be157604051637e27328960e01b81526004810182905260240161039c565b60405163177e802f60e01b81526001600160a01b03831660048201526024810182905260440161039c565b6060610c17826105b6565b505f610c2d60408051602081019091525f815290565b90505f815111610c4b5760405180602001604052805f8152506104f6565b80610c5584610cf4565b604051602001610c66929190611270565b6040516020818303038152906040529392505050565b610c868383610d84565b61041f335f858585610809565b5f6001600160a01b03831615801590610a345750826001600160a01b0316846001600160a01b03161480610ccc5750610ccc84846104fd565b80610a345750505f908152600460205260409020546001600160a01b03908116911614919050565b60605f610d0083610de5565b60010190505f8167ffffffffffffffff811115610d1f57610d1f611030565b6040519080825280601f01601f191660200182016040528015610d49576020820181803683370190505b5090508181016020015b5f19016f181899199a1a9b1b9c1cb0b131b232b360811b600a86061a8153600a8504945084610d5357509392505050565b6001600160a01b038216610dad57604051633250574960e11b81525f600482015260240161039c565b5f610db983835f6105fb565b90506001600160a01b0381161561041f576040516339e3563760e11b81525f600482015260240161039c565b5f8072184f03e93ff9f4daa797ed6e38ed64bf6a1f0160401b8310610e235772184f03e93ff9f4daa797ed6e38ed64bf6a1f0160401b830492506040015b6d04ee2d6d415b85acef81000000008310610e4f576d04ee2d6d415b85acef8100000000830492506020015b662386f26fc100008310610e6d57662386f26fc10000830492506010015b6305f5e1008310610e85576305f5e100830492506008015b6127108310610e9957612710830492506004015b60648310610eab576064830492506002015b600a83106102ac5760010192915050565b6001600160e01b031981168114610564575f80fd5b5f60208284031215610ee1575f80fd5b81356104f681610ebc565b5f5b83811015610f06578181015183820152602001610eee565b50505f910152565b5f8151808452610f25816020860160208601610eec565b601f01601f19169290920160200192915050565b602081525f6104f66020830184610f0e565b5f60208284031215610f5b575f80fd5b5035919050565b80356001600160a01b0381168114610f78575f80fd5b919050565b5f8060408385031215610f8e575f80fd5b610f9783610f62565b946020939093013593505050565b5f805f60608486031215610fb7575f80fd5b610fc084610f62565b9250610fce60208501610f62565b9150604084013590509250925092565b5f60208284031215610fee575f80fd5b6104f682610f62565b5f8060408385031215611008575f80fd5b61101183610f62565b915060208301358015158114611025575f80fd5b809150509250929050565b634e487b7160e01b5f52604160045260245ffd5b5f67ffffffffffffffff8084111561105e5761105e611030565b604051601f8501601f19908116603f0116810190828211818310171561108657611086611030565b8160405280935085815286868601111561109e575f80fd5b858560208301375f602087830101525050509392505050565b5f805f80608085870312156110ca575f80fd5b6110d385610f62565b93506110e160208601610f62565b925060408501359150606085013567ffffffffffffffff811115611103575f80fd5b8501601f81018713611113575f80fd5b61112287823560208401611044565b91505092959194509250565b5f806040838503121561113f575f80fd5b61114883610f62565b9150602083013567ffffffffffffffff811115611163575f80fd5b8301601f81018513611173575f80fd5b61118285823560208401611044565b9150509250929050565b5f806040838503121561119d575f80fd5b6111a683610f62565b91506111b460208401610f62565b90509250929050565b600181811c908216806111d157607f821691505b6020821081036111ef57634e487b7160e01b5f52602260045260245ffd5b50919050565b5f6001820161121257634e487b7160e01b5f52601160045260245ffd5b5060010190565b6001600160a01b03858116825284166020820152604081018390526080606082018190525f9061124b90830184610f0e565b9695505050505050565b5f60208284031215611265575f80fd5b81516104f681610ebc565b5f8351611281818460208801610eec565b835190830190611295818360208801610eec565b01949350505050565b601f82111561041f575f81815260208120601f850160051c810160208610156112c45750805b601f850160051c820191505b81811015610928578281556001016112d0565b815167ffffffffffffffff8111156112fd576112fd611030565b6113118161130b84546111bd565b8461129e565b602080601f831160018114611344575f841561132d5750858301515b5f19600386901b1c1916600185901b178555610928565b5f85815260208120601f198616915b8281101561137257888601518255948401946001909101908401611353565b508582101561138f57878501515f19600388901b60f8161c191681555b5050505050600190811b0190555056fea2646970667358221220a7593347b2ad4105bf73a09add7a2ffc77127070ac648a83f7f91c52f70b0b6c64736f6c63430008140033",
  "linkReferences": {},
  "deployedLinkReferences": {}
}